:020000040000fa
:080000000002040000000000f2
:020000040000fa
:100008009a0200009a0200009a0200009a02000078
:100018009a0200009a0200009a0200009a02000068
:100028009a0200009a0200009a0200009a02000058
:100038009a0200009a0200009a0200009a02000048
:020000040000fa
:020000040000fa
:100400002f8520000edf20000e0188000000000074
:10041000000020000000e000020032000001200087
:10042000200288000c00070000842000010020004a
:1004300011000700000020000000e0000200320070
:10044000000002000000000074070200000000002d
:100450000040da000000fe004440a9000000200037
:100460000000e0000300320000002000a00188002e
:100470004440a80000000600910188008000780038
:100480000000eb0015003700e280400032a0b4000d
:100490009101ba00e280400032a0b4009102ba009b
:1004a000e280400032a0b4000002eb00472bde00e7
:1004b000f507b200602ce10004003a000059eb009f
:1004c0008301e900fdff3e00040037006128e100e0
:1004d000010032000082eb00040007001101ba00a5
:1004e0000200e000e8ff3a00000006003159ba00bf
:1004f0008301e9000c0032002159ba008301e900b0
:10050000080032000400e00003003a00e2804000ee
:1005100032a0b400f5ff370011d9ba008301e90019
:10052000faff3a008100e800e180400032a0b40008
:0c053000000006000040da000000fe00a1
:020000040000fa
:10053c000000fa00c4fe2f00641988001519800011
:10054c00f4ff2100048262001419880024f02100b9
:10055c0024198800040e280004198800c0a2a900e0
:10056c00c802a900c822a900c842a900c982a800d3
:10057c00c9a2a900c9c2a800c9e2a800c002a8006b
:10058c000080fa00000006000200fa00000f78005c
:10059c00054080001e02780014027800048252008c
:1005ac0034408800154080001e82e8001402780058
:1005bc000482520044408800254080001e037800cd
:1005cc0064024300140278000482520054408800f4
:1005dc001e02780014027800044088001e82e80095
:1005ec0014027800144088009e0278006482420055
:1005fc0014027800244088000080fa0000000600f5
:10060c000e00fa0021e3a80000000000551680003f
:10061c000400280004826200e00f5200fbff32004d
:10062c0000000000551680000400280004826200bf
:10063c00e00f5200fbff3a000002eb004419880067
:10064c002023a80000000000041980006102620051
:10065c00e00f5200fcff32000418800044079800a1
:10066c002003a9002023a9001400200044198800ad
:10067c002023a80000000000041980006102620021
:10068c00e00f5200fcff3200041880005407980061
:10069c002003a9002023a90044002000441988004d
:1006ac002023a800000000000419800061026200f1
:1006bc00e00f5200fcff3200041880006407980021
:1006cc002003a9002023a900680247000400780039
:1006dc00adff07000002eb00040f78002a00370082
:1006ec00f400200014079800040028002407980048
:1006fc002100370000000000551680000400210086
:10070c0004826200e00f5200fbff3a000f0037003a
:10071c001e027800840242006480200004824200a1
:10072c0014027800840278002e0290000482620089
:10073c00340798003e029000e00f52000200320095
:10074c00cba2a80001003700cba2a900551680004f
:10075c000400210004826200e00f5200ecff320022
:10076c002e0290000402d100240798001e02900073
:10077c000402e900140798001e029000e00f5200da
:10078c00dcff3d001e0fe8001e027800e20f520055
:10079c00d3ff34000080fa00000006000e00fa00bf
:1007ac0021e3a8000000000055168000040028007a
:1007bc0004826200e00f5200fbff320000000000d8
:1007cc00551680000400280004826200e00f5200dd
:1007dc00fbff3a000002eb00441988002023a8001c
:1007ec00000000000419800061026200e00f52005a
:1007fc00fcff320004188000440798002003a90075
:10080c002023a90014002000441988002023a800ec
:10081c00000000000419800061026200e00f520029
:10082c00fcff320004188000540798002003a90034
:10083c002023a90044002000441988002023a8008c
:10084c00000000000419800061026200e00f5200f9
:10085c00fcff320004188000640798002003a900f4
:10086c002023a9000002eb00040f78002f003700b2
:10087c00f4002000140798000400280024079800b6
:10088c0026003700000000005516800004002100ef
:10089c0004826200e00f5200fbff3a0014003700a4
:1008ac001e0278000402420004024700c4029000b9
:1008bc001e02780004034200c4802000040243009e
:1008cc001402780004825200840278002e029000f8
:1008dc0004826200340798003e029000e00f520040
:1008ec0002003200cba2a80001003700cba2a90065
:1008fc00551680000400210004826200e00f5200b3
:10090c00e7ff32002e0290000402d1002407980069
:10091c001e0290000402e900140798001e029000c9
:10092c00e00f5200d7ff3d001e0fe8001e027800ba
:10093c00e20f5200ceff34000080fa0000000600e7
:10094c001000fa000002eb00540798000002eb00c4
:10095c00640798000002eb007407980021e3a800dc
:10096c00000000005516800004002800048262007c
:10097c00e00f5200fbff3200000000005516800013
:10098c000400280004826200e00f5200fbff3a00d2
:10099c000002eb00441988002023a800000000008e
:1009ac000419800061026200e00f5200fcff32006b
:1009bc001442800005188000050378006622b900f7
:1009cc00840278002481200004824200060a780008
:1009dc002003a9002023a90014002000441988003a
:1009ec002023a800000000000419800061026200ae
:1009fc00e00f5200fcff320014428000051880000a
:100a0c00050378006622b900840278004481200036
:100a1c0004824200060a78002003a9002023a900c2
:100a2c0044002000441988002023a8000000000086
:100a3c000419800061026200e00f5200fcff3200da
:100a4c001442800005188000050378006622b90066
:100a5c00840278006481200004824200060a780037
:100a6c002003a9002023a900144280000402e800fe
:100a7c0014428800154280008400200011000900f7
:100a8c008402d800010278001442880024428000bd
:100a9c00e70f520003003c00244280000402e800ef
:100aac00244288000002eb00040f78001e0037007f
:100abc005e0390001e0278006622b9008402780062
:100acc0024812000048242001402780004024300b6
:100adc00540798006e0390001e0278006622b9003d
:100aec00040278008482e800248120000482420001
:100afc001402780004024300640798007e039000ff
:100b0c001e0278006622b90004027800e40242005a
:100b1c002481200004824200140278000402430065
:100b2c00740798001e0fe800244280009e02780093
:100b3c00848f5200deff3500de02900024428000dc
:100b4c00110009008402d8000002780054079800b4
:100b5c00ee02900024428000110009008402d800ab
:100b6c000002780064079800fe0290002442800086
:100b7c00110009008402d800000278007407980064
:100b8c000002eb00140798002b003700f400200043
:100b9c002407980004002800340798002000370030
:100bac000000000055168000040021000482620041
:100bbc00e00f5200fbff3a000e0037001e029000bf
:100bcc0004024200040247005402900084027800a0
:100bdc003e02900004826200440798004e0290008e
:100bec00e00f520002003200cba2a8000100370037
:100bfc00cba2a900551680000400210004826200db
:100c0c00e00f5200edff32003e0290000402d100d2
:100c1c00340798002e0290000402e9002407980083
:100c2c002e029000e00f5200ddff3d001e029000ee
:100c3c000402e800140798001e029000e20f520014
:100c4c00d2ff34000080fa00000006000200fa0017
:100c5c0021e3a8000002eb00441988002023a8001f
:100c6c00000000000419800061026200e00f5200d5
:100c7c00fcff320014428000051880000503780048
:100c8c006622b9008402780024812000048242008c
:100c9c00060a78002003a9002023a90014002000d4
:100cac00441988002023a8000000000004198000cb
:100cbc0061026200e00f5200fcff3200144280001f
:100ccc0005188000050378006622b90084027800bc
:100cdc004481200004824200060a78002003a90007
:100cec002023a90044002000441988002023a800d8
:100cfc00000000000419800061026200e00f520045
:100d0c00fcff3200144280000518800005037800b7
:100d1c006622b900840278006481200004824200bb
:100d2c00060a78002003a9002023a9002442800091
:100d3c00e70f520003003c00244280000402e8004c
:100d4c00244288000002eb00040f78001e003700dc
:100d5c00364280001e0278006622b90084027800b8
:100d6c002481200004824200140278000402430013
:100d7c0034428800464280001e0278006622b90088
:100d8c00040278008482e80024812000048242005e
:100d9c00140278000402430044428800564280004a
:100dac001e0278006622b90004027800e4024200b8
:100dbc0024812000048242001402780004024300c3
:100dcc00544288001e0fe800244280009e027800e6
:100ddc00848f5200deff35003542800024428000b3
:100dec00110009008402d800000278003442880007
:100dfc004542800024428000110009008402d80082
:100e0c000002780044428800554280002442800051
:100e1c00110009008402d8000002780054428800b6
:100e2c00144280006622b9008402780024812000dc
:100e3c0004824200940278006440800004825200d4
:100e4c0064428800144280006622b90004027800d3
:100e5c008482e800248120000482420094027800fd
:100e6c007440800004825200744288001442800056
:100e7c006622b90004027800e402420024812000ba
:100e8c000482420094027800844080000482520064
:100e9c008442880026812000144280006622b9001a
:100eac00040278000402430004007800b6fd070039
:100ebc00144280000402e8001442880015428000ad
:100ecc0084002000110009008402d800010278007f
:100edc00144288000080fa00000006000a00fa00a4
:100eec0093fd070021e3a8000002eb0044198800e1
:100efc002023a80000000000041980006102620099
:100f0c00e00f5200fcff3200041880002407980008
:100f1c002003a9002023a9001400200044198800f4
:100f2c002023a80000000000041980006102620068
:100f3c00e00f5200fcff32000418800034079800c8
:100f4c002003a9002023a900440020004419880094
:100f5c002023a80000000000041980006102620038
:100f6c00e00f5200fcff3200041880004407980088
:100f7c002003a9002023a9002e02900064408800c1
:100f8c003e029000744088004e029000844088001d
:100f9c00c9a2a8000000000055168000040028001b
:100fac0004826200e00f5200fbff320000000000e0
:100fbc00551680000400280004826200e00f5200e5
:100fcc00fbff3a00c9a2a90024002000040f7800fe
:100fdc000002eb0014079800170037000000000017
:100fec00551680000400210004826200e00f5200bc
:100ffc00fbff3a00000000005516800004002100a1
:10100c0004826200e00f5200fbff32001e029000cf
:10101c000402420014079800541680004e22de0091
:10102c00614262000482fb009e0290000482420036
:10103c00140798001e0fe9001e027800e00f520002
:10104c00e6ff3c001e029000e00f520002003a0046
:10105c003bfe0700ceff37001e029000e10f52004e
:10106c0002003a0066fd0700c9ff3700cbfd070000
:04107c00c7ff370073
:020000040000fa
:101080000008000052000000000000000000000006
:020000040000fa
:0200000401f009
:040000000f000000ed
:020000040000fa
:0200000401f009
:0400080003000000f1
:020000040000fa
:0200000401f009
:04000c008700000069
:020000040000fa
:0200000401f009
:04001000bf0000002d
:020000040000fa
:0200000401f009
:040014005f00000089
:020000040000fa
:0200000401f009
:04001800fb000000e9
:020000040000fa
:0200000401f009
:04001c00c30000001d
:020000040000fa
:0200000401f009
:04002000ff000000dd
:00000001FF
